:020000040000FA
:10000000010E756E71EF00F0020E756E71EF00F06B
:08001800040E756E71EF00F09B
:10002000800E7F6E7E6A04007D50EF14D8A47E2A75
:100030007F2E14EF00F01200810EE96E400E7D6EEF
:1000400010EC00F0800E7E621CEF00F0810EE96E75
:10005000400E7D6E10EC00F0000E7E6226EF00F088
:10006000810EE96E800E7D6EDBDF7C90000E7E627D
:100070007C801200080E7B6E7A6A7A42DDDF7CB0EB
:100080007A8E7B4E12003DEF00F0080E7B6E810EE3
:10009000E96E400E7D6E10EC00F0800E7E6247EF40
:1000A00000F0939E819E79B0818E810EE96E400EA4
:1000B0007D6E10EC00F0000E7E6255EF00F07B4E7E
:1000C00065EF00F0793247EF00F0810EE96E400EE7
:1000D0007D6E10EC00F0800E7E6265EF00F0938E76
:1000E0001200F30ED36E81AC83EF00F081AE83EF8C
:1000F00000F0F26AD56ACD6A92689368C1680F0E03
:10010000EA6E8CEF00F075B000EF01F075B204EF0D
:1001100001F075B408EF01F0ADDFAA0E7A5CD8B437
:100120009AEF00F0550E7A5CD8B4A9EF00F0040005
:100130008CEF00F03AEC00F07AC0F6FF3AEC00F0F9
:100140007AC0F7FFF86A0900F5CF79F09EDFA3EFD8
:1001500000F03AEC00F07AC0F6FF3AEC00F07AC01A
:10016000F7FFF86AA68EA69CA684A688550EA76EF1
:10017000AA0EA76EA6820000080E766E7BDF7AC0FC
:10018000F5FF0D0077DF7AC0F5FF0D0073DF7AC051
:10019000F5FF0D006FDF7AC0F5FF0D006BDF7AC051
:1001A000F5FF0D0067DF7AC0F5FF0D0063DF7AC051
:1001B000F5FF0D005FDF7AC0F5FF0C00550EA76E4E
:1001C000AA0EA76EA6820000F62A762EBEEF00F0D9
:0401D0008CEF00F0C0
:00000001FF
