:0400000063EF00F0BA
:06000800328265EF00F0FA
:100018003280D8CF14F0E8CF15F0E0CF16F0FACF41
:1000280017F0FBCF18F0E9CF19F0EACF1AF0E1CFBB
:100038001BF0E2CF1CF0D9CF1DF0DACF1EF0F3CFC2
:100048001FF0F4CF20F0F6CF21F0F7CF22F0F8CF51
:1000580023F0F5CF24F032C025F033C026F034C0A9
:1000680027F035C028F028C035F027C034F026C066
:1000780033F025C032F024C0F5FF23C0F8FF22C0BA
:10008800F7FF21C0F6FF20C0F4FF1FC0F3FF1EC01A
:10009800DAFF1DC0D9FF1CC0E2FF1BC0E1FF1AC078
:1000A800EAFF19C0E9FF18C0FBFF17C0FAFF16C026
:1000B800E0FF15C0E8FF14C0D8FF329010001DEF14
:1000C80001F0FACF02F0FBCF03F0E9CF04F0EACF5A
:1000D80005F0E1CF06F0E2CF07F0D9CF08F0DACF8C
:1000E80009F0F3CF0AF0F4CF0BF0F6CF0CF0F7CF0E
:1000F8000DF0F8CF0EF0F5CF0FF032C010F033C08E
:1001080011F034C012F035C013F031903ED0318078
:10011800F2A429D0F294630ED76EC00ED66E319039
:100128002EC02DF08050030B2E6E2D502E18D8A403
:1001380002D031B216D031922EC02DF0B80E2B6EEF
:10014800020E2C6E89BC03D0016A012A01D0016A13
:10015800013A0146014689500118BF0B0118896E02
:1001680002D089AC898C9EAA10D03190AECF30F0E5
:100178009E9A01D80AD00500FA6E2950FD6E2A50C1
:10018800FE6EF850FF6EFA50120031A0C0D713C0AF
:1001980035F012C034F011C033F010C032F00FC087
:1001A800F5FF0EC0F8FF0DC0F7FF0CC0F6FF0BC03F
:1001B800F4FF0AC0F3FF09C0DAFF08C0D9FF07C07F
:1001C800E2FF06C0E1FF05C0EAFF04C0E9FF03C083
:1001D800FBFF02C0FAFF32921100700ED36EC168A5
:1001E80092809282929C898C000E316E900EAB6E3A
:1001F800240EAC6E080EAA6E110EAF6E9E9A9D8AE2
:10020800800ED56E630ED76EC00ED66EF294F28A4B
:10021800F28CF28E04009EA8FDD701D8FBD705000A
:10022800FA6E2B50FD6E2C50FE6EF850FF6EFA5091
:100238001200C40EF66E020EF76E000EF86E00EE97
:1002480029F010EE06F00900F5CFEEFFE550E15079
:10025800FAE1316A306A2F6A32903292000EF86EF3
:100268000001F1EF00F080CF2FF0030E2F162F447E
:10027800E846FC0B2F122F38F00B2F12D80E2F1A2E
:100288002FC0ADFFCA0E2B6E020E2C6E12002F501F
:100298003018D8B43182A80E296E020E2A6E1200C8
:1002A8003028D8A41200960E296E020E2A6E12006B
:1002B800AD686E0E2B6E020E2C6E1200A802CA02DA
:0402C800FFFF120022
:020000040020DA
:08000000FFFFFFFFFFFFFFFF00
:020000040030CA
:0E000000FFC80A1FFF8081FF03C003E003401A
:00000001FF
