:0400000063EF00F0BA
:06000800308265EF00F0FC
:100018003080D8CF14F0E8CF15F0E0CF16F0FACF43
:1000280017F0FBCF18F0E9CF19F0EACF1AF0E1CFBB
:100038001BF0E2CF1CF0D9CF1DF0DACF1EF0F3CFC2
:100048001FF0F4CF20F0F6CF21F0F7CF22F0F8CF51
:1000580023F0F5CF24F030C025F031C026F032C0AF
:1000680027F033C028F028C033F027C032F026C06C
:1000780031F025C030F024C0F5FF23C0F8FF22C0BE
:10008800F7FF21C0F6FF20C0F4FF1FC0F3FF1EC01A
:10009800DAFF1DC0D9FF1CC0E2FF1BC0E1FF1AC078
:1000A800EAFF19C0E9FF18C0FBFF17C0FAFF16C026
:1000B800E0FF15C0E8FF14C0D8FF3090100036EFFD
:1000C80001F0FACF02F0FBCF03F0E9CF04F0EACF5A
:1000D80005F0E1CF06F0E2CF07F0D9CF08F0DACF8C
:1000E80009F0F3CF0AF0F4CF0BF0F6CF0CF0F7CF0E
:1000F8000DF0F8CF0EF0F5CF0FF030C010F031C092
:1001080011F032C012F033C013F02F901DD02F80A1
:10011800F2A408D02F90630ED76EC00ED66EF2945C
:1001280089AC898C9EAA10D02F90AECF2EF09E9AC3
:1001380001D80AD00500FA6E2B50FD6E2C50FE6EC9
:10014800F850FF6EFA5012002FA0E1D713C033F019
:1001580012C032F011C031F010C030F00FC0F5FFFE
:100168000EC0F8FF0DC0F7FF0CC0F6FF0BC0F4FF80
:100178000AC0F3FF09C0DAFF08C0D9FF07C0E2FFD1
:1001880006C0E1FF05C0EAFF04C0E9FF03C0FBFFAA
:1001980002C0FAFF309211002E50030B2D6E2D4431
:1001A800E846FC0B2D122D38F00B2D12D80E2D1A07
:1001B8002E502D18D8A421D0030E2E1A2EC001F0CF
:1001C800010E011689500118FE0B0118896E2EA226
:1001D80003D0016A012A01D0016A01468950011839
:1001E800FD0B0118896E897C630ED76EC00ED66E22
:1001F800F294BE0E296E020E2A6EA00E2B6E020E0F
:100208002C6E1200700ED36E050E9B6EC168000E28
:100218002F6E929C898C8990899292909292900EDE
:10022800AB6E240EAC6E080EAA6E110EAF6E9E9ABF
:100238009D8A810ED56E630ED76EC00ED66EF2946F
:10024800F28AF28CF28E04009EA8FDD701D8FBD763
:100258000500FA6E2950FD6E2A50FE6EF850FF6EAA
:10026800FA501200CA0EF66E020EF76E000EF86E05
:1002780000EE29F010EE04F00900F5CFEEFFE5508E
:10028800E150FAE12F6A2E6A2D6A30903092000E02
:10029800F86E000106EF01F02E28D8A41200A00E77
:1002A8002B6E010E2C6E12002DC0ADFFCE0E296EE6
:1002B800020E2A6E1200AD68B00E296E020E2A6E6A
:0802C8001200CE02A002120098
:020000040020DA
:08000000FFFFFFFFFFFFFFFF00
:020000040030CA
:0E000000FFC80A1FFF8081FF03C003E003401A
:00000001FF
